:100000000C9455010C9499010C94B4010C94990131
:100010000C9499010C9499010C9499010C949901F8
:100020000C9499010C9499010C94FB140C94990173
:100030000C9499010C9499010C9499010C949901D8
:100040000C9499010C9499010C9499010C949901C8
:100050000C949901A70BA70BD90BD90B260C4D0DAE
:100060004D0D4D0D440CDD0CEE0CEE0CE90DE90DC3
:10007000FB0DFB0DF20DFB0DFB0DFB0DE90DE90D6D
:10008000F70DFB0DFB0DF70D68747470733A2F2F8D
:10009000716D6B2E666D2F0A00514D4B20697320D8
:1000A0007468652062657374207468696E67206582
:1000B000766572210004001D000800150017001C61
:1000C0000018000C001200130014001600070009AD
:1000D000000A000B000D000E000F0010001A001B9C
:1000E000000000060004001D000800150017001C99
:1000F0000018000C0012001300140016000700097D
:10010000000A000B000D000E000F0010001A001B6B
:10011000000000060000000000000000002A2B285C
:1001200000000000000000000000000000000000CF
:1001300029000000002C1E342021222434262725EB
:100140002E362D3738271E1F202122232425263323
:1001500033362E37381F0405060708090A0B0C0D25
:100160000E0F101112131415161718191A1B1C1D37
:100170002F3130232D350405060708090A0B0C0D15
:100180000E0F101112131415161718191A1B1C1D17
:100190002F3130354C00000000000000000000004E
:1001A0000000000000000000007E0F00D4FFFFFFF1
:1001B000C70000007809023B00020100A0FA090410
:1001C000000001030101000921010100012240009A
:1001D0000705810308000109040100010300000074
:1001E00009210101000122320007058303080001F3
:1001F0001201100100000008A0202D4201000102A0
:1002000003010403300000001A036B006F006F004D
:100210006C0065007200740072006F006E003200A6
:10022000330000000E036B0069006D0069006B0075
:100230006F0000000403090405010980A101850382
:1002400019012AB700150126B70095017510810024
:10025000C0050C0901A101850419012AA00215019C
:1002600026A002950175108100C005010906A101B3
:10027000050719E029E71500250195087501810298
:100280009501750881030507190029FF150026FF50
:100290000095067508810005081901290595057561
:1002A000019102950175039103C011241FBECFE592
:1002B000D8E0DEBFCDBF04B603FE24C080912E027D
:1002C00090912F02A0913002B09131028730904B73
:1002D000A740B04BB9F410922E0210922F02109248
:1002E00030021092310214BE84B7877F84BF0FB6EC
:1002F000F894A89581B5886181BD11BC0FBEE0E07E
:10030000F8E3099510E0A0E6B0E0E6E0F1E302C012
:1003100005900D92AA3DB107D9F722E0AAEDB0E011
:1003200001C01D92AE32B207E1F70E9452150C9443
:1003300081180C940000A82FB92F80E090E041E0D4
:1003400050EA609530E009C02D91822797958795F6
:1003500010F084279527305EC8F36F5FA8F30895E7
:10036000EADF8D939D930895CF93CFB7CF93C39535
:10037000839BE9F7839B0EC0839B0CC0839B0AC0C1
:10038000839B08C0839B06C0C0910502C395C093A0
:100390000502A6C0DF93C0910402DD27C45FDD4FD4
:1003A000839B02C0DF91E6CF2F930F931F9300B37F
:1003B0002FEF03FB20F94F933F9310B34FEF01272B
:1003C00003FB21F93BE031C04E7F012F10B32160C8
:1003D00028C0102F4D7F2260000000B329C04B7F42
:1003E0002460012F000010B32BC010B3477F28609A
:1003F0002AC04F7E00B320612CC04F7D10B3206215
:100400002FC04F7B00B3206432C0422700B3499312
:100410004FEF0000102713FB20F910B31C70C9F137
:10042000297F91F2012703FB21F900B3237F89F291
:10043000315058F1102713FB22F910B3277E79F2BF
:10044000012703FB23F92F7C81F200B3102713FB54
:1004500024F92F7971F200C010B3012703FB25F9AD
:100460002F7359F200C000B3102713FB26F9223076
:1004700040F200C010B3012703FB27F9243028F60F
:100480004F77206810B30000F9CF10E81ABF00279B
:100490001CC03B503195C31BD04010E81ABF0881E7
:1004A000033C11F10B3401F1209101021981110F6C
:1004B0001213EDCF4A81441F093659F10D3211F064
:1004C000013E29F74F7009F0042F00930A023F9173
:1004D0004F911F910F912F91DF91CAB7C7FD47CF61
:1004E000CF91CFBFCF91189520910A02222379F3A3
:1004F000109108021123C1F53430C2F13093080283
:1005000020930302109104023BE0311B309304025C
:100510002DC00091080201303CF50AE54F7049F406
:1005200030916D0034FD24C000936D00CAEED1E01F
:1005300023C0433049F03091F50134FD19C00093D8
:10054000F501C6EFD1E018C03091220234FD10C091
:1005500000932202C3E2D2E00FC02795A8F45150C5
:10056000A9F4220F0000F9CF4AE503C042ED01C013
:10057000432FC4E1D0E032E011B31C60939A11BB69
:1005800002B320E41CE05F93012756E002BB2795ED
:1005900020F4515021F4220FF9CF012756E000003A
:1005A0003B5A02BBD0F2279528F4515029F4220F70
:1005B0000000F9CF012756E0279502BB20F45150E7
:1005C00021F4220FF9CF012756E02991332302BBF2
:1005D00021F6037F10910902110FC651D04002BBD2
:1005E00011F01093010210E81ABF086011B3137FD5
:1005F000402F437F5F9100C000C002BB11BB42BBD4
:1006000066CF88302DE5920721F089309D4541F075
:100610000FC0FB018281882359F089E990E006C070
:10062000FB018281882321F088E890E00E94230466
:1006300081E0089581E008950C94010308950C94DD
:100640001E031F93CF93DF9300D000D01F92CDB72E
:10065000DEB749835A836B833091EC0089819A819C
:10066000311114C0662359F0222349F00E94A712C9
:10067000182F682F89819A810E944E1203C00E9410
:100680007A12182F69817A81812F04C00E94A712E3
:1006900069817A810F900F900F900F900F90DF91EA
:1006A000CF911F910C948D04FC01262F4081518124
:1006B0006281738184810C942103CF93DF93EC01D9
:1006C00060E00E945403BE01DF91CF910C941F03A0
:1006D000FF920F931F93CF93DF93E82FF0E0EB5E31
:1006E000FE4FF490C82FC695C695C695D0E0FE0182
:1006F000EB55FE4F0491877010E0082E02C015954F
:1007000007950A94E2F701701127FE01EB56FE4FA0
:10071000C491D0E002C0D595C7958A95E2F7C17023
:10072000DD270115110519F081EE0E94D20A2097EC
:1007300019F086EE0E94D20A8F2D0E944C0BCD2B11
:1007400019F086EE0E94200B012B41F081EEDF9123
:10075000CF911F910F91FF900C94200BDF91CF91BF
:100760001F910F91FF900895EF92FF920F931F93A7
:10077000CF93DF938C01F62E8AE0E82EF801849166
:10078000882309F459C0813009F044C0E80121965A
:10079000FE018491813041F42196FE011491812F54
:1007A0000E94D20A812F0FC0823039F4E8012296CC
:1007B000FE0184910E94D20A30C0833039F4E801EE
:1007C0002296FE0184910E94200B27C0843029F5D7
:1007D000E8012296FE01249180E090E030E0205371
:1007E00031092A30310560F4E89EA001E99E500DE0
:1007F0001124C901840F951F2196FE012491EECF8B
:10080000009759F0E7EBFBE03197F1F700C00000EB
:100810000197F6CF0E946803E8018E010F5F1F4F1A
:100820008F2D882309F4AACFE7EBFBE03197F1F78E
:1008300000C000008150F5CFDF91CF911F910F9143
:10084000FF90EF90089560E00C94B4030E94CC13E5
:10085000811102C00E946C140C947A060C947606E6
:1008600008950C94300481E008950C943304CF93E0
:10087000C82F0E9431048C2F0E943504CF91089517
:1008800008950E94D70D0E9440042FEB87E299E063
:10089000215080409040E1F700C000000C942115E9
:1008A0000F931F93CF93DF93EC0161E00E945403F9
:1008B0008C01BE010E941C03882349F1BE01C801BE
:1008C0000E940108882319F1BE01C8010E94420854
:1008D0008823E9F0BE01C8010E946D098823B9F0A0
:1008E0008A81882369F001158CE5180731F00E3DE7
:1008F0001C4531F40E946C140AC00E94410407C0D8
:10090000CE01DF91CF911F910F910C941A0380E0DB
:10091000DF91CF911F910F91089528E1829FC0012F
:100920001124FC0126E0729FE00DF11D1124E60F59
:10093000F11DEE0FFF1FEB54FF4F85919491089529
:10094000CF93DF930E948D040E949105EC018115E5
:100950009245F0F5C11581E5D80708F0A9C0C83E59
:10096000D10528F5C03ED10508F0D7C0C83AD10559
:1009700078F4C53AD10508F074C0C130D10509F446
:10098000CCC008F4C8C0C430D10508F0C6C0C3C08C
:10099000CF3BD10508F0BFC0C85AD0E0CC0FDD1F57
:1009A000C259DF4F0990D881C02DD464B6C0C1159B
:1009B00090E5D90708F060C0C11520E4D20708F01F
:1009C00058C0CE019A9581159F4108F4A6C0A3C0D6
:1009D000C11586E5D80718F5C11595E5D90708F0C2
:1009E00080C0C11524E5D20708F076C09E012370AF
:1009F00033278C2F86958695C115D34508F05DC0A9
:100A0000C1E0D0E002C0CC0FDD1F2A95E2F720E262
:100A1000829FC0011124C82BD92BDC687EC0C11570
:100A20002AE5D20778F4C11589E5D80708F063C034
:100A3000C11598E5D90708F46EC0DC2FCC27C06F2C
:100A4000D06A6BC0CE0190568115904208F063C009
:100A50008D2F8F710E942506DD27D0628F71D82BD4
:100A60005CC0C55AD0E0C456DF4FC881D0E0D06426
:100A700054C0DF70D06A51C0CE0174E0969587955E
:100A80007A95E1F783709C2F937021E030E002C0EB
:100A9000220F331F9A95E2F73C68382BCF70C6952A
:100AA000C69580E2C89FE0011124C22BD32B35C02C
:100AB000DC2FCC27C16FD06A30C0C1E0D0E002C0CB
:100AC000CC0FDD1F2A95E2F720E2829FC00111249E
:100AD000C82BD92BDA6821C0DC2FCC27C46FD06A91
:100AE0001CC08C2F0E9425068F71C82FD0E0DC2FF0
:100AF000CC27D06212C08C2F8F700E94250694E004
:100B0000D695C7959A95E1F7CF70D0E0DC2FCC272A
:100B1000D069C82B02C0C0E0D0E0CE01DF91CF91F8
:100B200008958238910569F1B0F48133910509F493
:100B30006DC048F48932910509F463C08A32910589
:100B400009F469C008958533910509F455C08933C6
:100B50009105B9F00895833E910569F138F4803E1E
:100B60009105B1F0823E910509F10895863E910507
:100B7000A9F1873E9105B9F1843E910509F064C061
:100B800023C02091E80120FD4FC021FD4DC00895F4
:100B90008091E80180FD44C08091E90180FF44C05C
:100BA0008091E80184FD42C083EE4DC08091E80150
:100BB00082FF38C0F5CF8091E80182FD33C080917B
:100BC000E90180FD31C0ECCF8091E90181FF32C0A5
:100BD0008091E80184FD2AC087EE35C08091E8014C
:100BE00083FF26C0F5CF8091E80183FD21C080916D
:100BF000E90181FD1FC0ECCF8091E80185FD1CC09B
:100C00001DC08091E80185FD19C016C08091E801E2
:100C100086FD16C017C08091E80186FD13C010C084
:100C200089E311C082EE0FC080EE0DC080E00BC0E2
:100C300086EE09C084EE07C089E205C085E303C0E3
:100C40008AE201C081E390E008959091E80192FF6B
:100C50000DC0282F2871283019F4877F846006C0C2
:100C6000282F2471243011F48B7F886093FF0DC0EE
:100C7000282F2871283119F4877E846106C0282F17
:100C80002471243111F48B7E88612091E90120FFC9
:100C90000DC0382F3871383019F4877F816006C055
:100CA000382F3171313011F48E7F886021FF0DC0F3
:100CB000282F2871283119F4877E816106C0282FDA
:100CC0002171213111F48E7E886194FD877E089513
:100CD000E82FF0E0E052FE4F80810895089588E704
:100CE0008A95F1F7089508950C9473060C94740690
:100CF0000C9473060C947806CF93DF93A5EAB0E0CA
:100D000049EA50E061E070E08D91E82FE295EF70E4
:100D1000F0E021A98F70EB0102C0CC0FDD1F8A9596
:100D2000E2F7CE019C2F9095922391AB92A9892B4B
:100D300082AB4A175B0741F7AFE9B0E041E050E012
:100D40008D91E82FE295EF70F0E021A98F70BA0144
:100D500002C0660F771F8A95E2F7CB01962F909518
:100D6000922391AB92A9892B82AB70E0A53AB70789
:100D700039F71092DC011092E0011092DD0110921F
:100D8000E1011092DE011092E2011092DF01109257
:100D9000E30184E00E945607DF91CF910C94260472
:100DA0006F927F928F929F92AF92BF92CF92DF927B
:100DB000EF92FF920F931F93CF93DF9385EA882ED4
:100DC00080E0982E0CED11E090EEA92E91E0B92E66
:100DD000712CCC24C394D12CF40181914F01C82FE4
:100DE000C295CF70D0E099A98F70760101C0EE0C4A
:100DF0008A95EAF7892F8E2989AB8AA96E2C60948F
:100E000086218AAB0E946F06EFE9F0E040E050E0F7
:100E100020E03191A32FA295AF70B0E0D0968C91D5
:100E200090E03F7002C0959587953A95E2F780FD76
:100E300007C08C2D042E01C0880F0A94EAF701C068
:100E400080E0282B4F5F5F4F4630510511F789A98D
:100E5000682269AA8AA9E82AEAAAF80180812817E3
:100E600019F0208381E001C080E0782A0F5F1F4FD6
:100E7000A016B10609F0B0CF272D44E060EE71E076
:100E80008CED91E00E9457070E942E04872DDF9180
:100E9000CF911F910F91FF90EF90DF90CF90BF9077
:100EA000AF909F908F907F906F9008950895FF92DC
:100EB0000F931F93CF93DF938C01F62ED72FC42F60
:100EC000222349F081E08093DC000E94E01490939B
:100ED000DB008093DA008091DC008823C1F08091F0
:100EE000DA009091DB000E94EC14069780F0EF2D61
:100EF000FD2FD8014C2F50E0CD01801B910B8417A2
:100F000095071CF48D918193F7CF1092DC00DF914F
:100F1000CF911F910F91FF9008950F931F93CF933F
:100F2000DF93C62FD42F122FFC0182818823C9F0B2
:100F30006093DF000E94E0149093DE008093DD0058
:100F400080E28C0F883008F057C0C77081E001C084
:100F5000880FCA95EAF7DF91CF911F910F910C94FA
:100F60005F0B8091DF00681330C08091DD009091AD
:100F7000DE000E94EC14883C910538F500E20D0F6C
:100F8000CD17B9F080E28C0F883040F4C77081E053
:100F900001C0880FCA95EAF70E94660B083028F551
:100FA00081E09D2F977001C0880F9A95EAF70E9403
:100FB0005F0B812F0E944C0B0830F0F4D77081E05A
:100FC00001C0880FDA95EAF70AC080E28C0F8830FA
:100FD00098F4C77081E001C0880FCA95EAF7DF91E5
:100FE000CF911F910F910C94660B812FDF91CF91C0
:100FF0001F910F910C944C0BDF91CF911F910F918A
:1010000008959C01CB01233F4CE53407F9F078F4B7
:10101000283DFCE53F07B9F0293D4CE5340711F1C7
:10102000273D3C4531F526E241EE61EE1EC0253FED
:10103000FCE53F0799F070F0263F3C45D1F427E2EC
:1010400045EE66EE12C027E245EE0EC026E241EE06
:1010500060EE0BC027E245EE64EE07C026E241EEEB
:1010600062EE03C028E241E065EE0E948D0780E059
:101070000895FC018281882319F01092DF00089501
:1010800081E00895CF93DF93EC01FB0182818823F7
:1010900009F41FC1C230FCE5DF0708F41BC1C631EB
:1010A0009CE5D90738F09E012A5F3C45293031057F
:1010B00008F010C10E94DF139093E9018093E801CA
:1010C000C031ECE5DE0709F4C3C008F041C0C83008
:1010D0008CE5D80709F49AC0F0F4C430ECE5DE07DB
:1010E00009F487C068F4C2308CE5D80709F477C0EA
:1010F000C330DC4509F0E3C08091E801826076C02E
:10110000C630ECE5DE0709F46EC008F07BC08091C4
:10111000E80188606BC0CC308CE5D80709F485C045
:1011200068F4CA30ECE5DE0709F474C008F079C051
:101130000E94D70D8091E801806858C0CE308CE5C0
:10114000D80709F476C008F07FC08091E8018BC011
:10115000CB3FECE5DE0709F44FC018F5C3318CE551
:10116000D80709F47DC078F4C131ECE5DE0709F455
:1011700073C0C231DC4509F0A2C00E94D70D809136
:10118000E8018F7733C0C5318CE5D80709F472C008
:1011900008F486C0CA3FDC4509F091C08091E9019E
:1011A0003EC0CF3FFCE5DF0709F45FC058F4CD3FF8
:1011B0009CE5D90709F444C008F43FC08091E901D7
:1011C00082602DC0C130FDE5DF0709F475C008F469
:1011D0005DC0C230DD4509F072C080E06EC0809114
:1011E000E801816003C08091E80180618093E8019B
:1011F00066C08091E80111C08091E901826080930E
:10120000E9015DC08091E8018062F0CF8091E80142
:101210008064ECCF8091E80188608460E7CF8160D2
:10122000EECF8091E8018E7FE1CF8091E8018D7F44
:10123000DDCF8091E801877FD9CF8091E90118C087
:101240008091E9018D7FDBCF8091E8018F7ECECF49
:101250008091E8018F7DCACF8091E8018F7BC6CF56
:101260008091E801877F8B7FC1CF8091E9018D7FDD
:101270008E7FC5CF8091E80182FB222720F991E083
:10128000922790FB82F990FB83F9B0CF8091E9011E
:10129000982F909591708E7F892B90FB81F9AFCF1D
:1012A0000E94D70D8091E80187FB222720F991E069
:1012B000922790FB87F99ACF81E00E946E1480916B
:1012C000E8019091E9010E94F0130E94D70D80E09F
:1012D00001C081E0DF91CF910895CF93DF938631F4
:1012E0009C4541F5EB010E942813982F8A8120919B
:1012F000600030916100882379F09A7A81E009F4E6
:1013000080E08093E000911102C069E201C065E3D2
:10131000C9010E94B5140AC08091E000811102C089
:1013200069E201C065E3C9010E94B7140E94691314
:1013300080E001C081E0DF91CF9108959093E600B5
:101340008093E5000895E091E500F091E600309784
:1013500021F00190F081E02D099480E00895E09162
:10136000E500F091E600309721F00280F381E02D56
:10137000099408952091E3003091E400281739077B
:1013800071F09093E4008093E300E091E500F09128
:10139000E600309721F00680F781E02D099408954A
:1013A0002091E1003091E2002817390771F0909305
:1013B000E2008093E100E091E500F091E6003097D3
:1013C00021F00084F185E02D0994089584B78068A8
:1013D00084BF84B7806884BF089508950C94ED0994
:1013E0000C94EE090C94ED090C94ED090E94E609A9
:1013F0000E94F2090C94F00981E008950C94FC0914
:101400000E94D9140E947C060E943A150C94F4099B
:10141000AF92BF92CF92DF92EF92FF920F931F9302
:10142000CF93DF93CDB7DEB72A970FB6F894DEBF20
:101430000FBECDBF0E94D0060E94FE09811111C0CF
:101440008FEF89838A831B820E94E0148160782F4A
:101450009D838C8349815A816B818D810E949E0A74
:1014600040C088EEA82E80E0B82E00E010E0C02E2C
:10147000802F0E946806E82EF501D1905F01D826E2
:1014800031F40F5F1F4F0430110589F7D9CF8091D8
:10149000490181FD0E946E0680E0FF24F3949D2D9A
:1014A0009F21D1F08E83CF82EF2081E009F480E08C
:1014B00088870E94E0148160782F9A8789874E81FF
:1014C0005F8168858A850E949E0AF801E851FF4F76
:1014D0008081F826F08205C08F5FFF0C8630F9F618
:1014E000D0CF0E94A3099091E7008917B1F00E9424
:1014F000A3098093E7002A960FB6F894DEBF0FBECB
:10150000CDBFDF91CF911F910F91FF90EF90DF90B2
:10151000CF90BF90AF900C9437042A960FB6F894F2
:10152000DEBF0FBECDBFDF91CF911F910F91FF9016
:10153000EF90DF90CF90BF90AF900895CF93DF935F
:10154000CDB7DEB72B970FB6F894DEBF0FBECDBF79
:101550004F83588769877A878B87DE01119686E0EB
:10156000FD0111928A95E9F785E0FE013796019019
:101570000D928A95E1F749815A816B817C818D8139
:101580009E810E9490102B960FB6F894DEBF0FBE7E
:10159000CDBFDF91CF910895FC01808191810E94A0
:1015A000E9120895CF93882309F448C0C82F8CEF1F
:1015B0008C0F813AD0F46C2F809160009091610083
:1015C0000E947F14882349F06C2F809160009091D5
:1015D00061000E94B7140E9469136C2F8091600013
:1015E000909161000E94B5140CC080E28C0F88308D
:1015F00058F4C77081E001C0880FCA95EAF70E94CD
:101600002B13CF910C946913EBE5EC0FE33040F40E
:10161000F0E0E952FF4F808190E0CF910C94BA093D
:10162000C85AC73158F4EC2FF0E0EE0FFF1FE75512
:10163000FF4F80819181CF910C94D009CF91089573
:10164000882349F1682F8CEF860F813A38F4809116
:101650006000909161000E94B7140CC080E2860F78
:10166000883050F4677081E001C0880F6A95EAF70E
:101670000E9431130C9469138BE5860F833020F49C
:1016800080E090E00C94BA09685A673120F480E059
:1016900090E00C94D0090895CF93C82F0E94D20AED
:1016A000C93349F42FEF8DEE92E0215080409040F5
:1016B000E1F700C000008C2FCF910C94200B882301
:1016C00021F00E942B130C9469130895882321F0B4
:1016D0000E9431130C9469130895CF92DF92EF9218
:1016E000FF920F931F93CF93DF937C01D62FC72FC9
:1016F000FC01058102950F70128111110E9448139F
:101700000E942113882399F0112389F08C2F807F68
:10171000803421F080E28D0F883048F082E00E9412
:10172000B3130E94211391E0D82ED92601C0D12CE9
:10173000CC2EC2948FE0C8228C2D90E08C30910585
:1017400008F0ABC1FC01E65DFF4F0C942D188C2F07
:10175000807FCF70882311F0C295C07F112399F04C
:10176000CC2309F486C180E28D0F883010F0D111AE
:1017700004C08C2F0E942B1303C08C2F0E943B139C
:101780000E94691376C18D2F0E94200BCC2309F48F
:1017900084C180E28D0F883010F0D11104C08C2FED
:1017A0000E94311303C08C2F0E9441130E946913C1
:1017B00074C18C2F807FCF70803211F0C295C07FB2
:1017C000DD2319F0D130C9F022C0112371F00023BC
:1017D00041F0013031F40E944E138C2B0E945613BD
:1017E0005CC10E944E138C2B1DC0002319F00130E8
:1017F00009F453C10E945F1325C0112321F0063064
:1018000008F04BC10EC0053008F047C11BC01123C2
:1018100061F0002331F0F701858180FF2AC18F70CC
:1018200085838C2F0E945F0B38C1002359F0D93378
:1018300009F030C1FFEF0DEE12E0F1500040104012
:10184000E1F726C18C2F0E94660B27C18C2F86954D
:101850008695837019F0813061F01FC1112321F04A
:101860008D2F9C2F937002C080E090E00E94BA09F7
:101870001CC1112321F08D2F9C2F937002C080E09A
:1018800090E00E94D00911C18C2F837009F047C0ED
:10189000111107C12D2F229526952770220F220F97
:1018A0006D2F6F70862F90E0A0E0B0E0022E04C094
:1018B000880F991FAA1FBB1F0A94D2F7D4FF10C02C
:1018C0004FE050E060E070E004C0440F551F661F19
:1018D000771F2A95D2F7409550956095709503C073
:1018E00040E050E0BA01C695C695C3708A019B01DD
:1018F000082B192B2A2B3B2BC901B801C23049F008
:1019000058F4C13019F00E946411CBC00E945211EA
:10191000C8C00E947611C5C00E945011C2C01123D8
:1019200019F08C2F817001C08695882309F4B9C005
:101930002D2F229526952770220F220F6D2F6F7065
:10194000862F90E0A0E0B0E0022E04C0880F991F1F
:10195000AA1FBB1F0A94D2F7D4FF10C04FE050E07B
:1019600060E070E004C0440F551F661F771F2A9582
:10197000D2F7409550956095709503C040E050E0D7
:10198000BA01C695C695C3708A019B01082B192B15
:101990002A2B3B2BC901B801C23049F058F4C130A1
:1019A00019F00E9429127DC00E9417127AC00E946D
:1019B0003B1277C00E948A1174C0CF70112339F096
:1019C0008C2F0E94B0118D2F0E945F0B6AC08D2F4B
:1019D0000E94660B8C2F0E94D11163C0D23F01F18F
:1019E00028F4D03F41F0D13FA1F03FC0D33FF9F000
:1019F000D43F39F13AC0112341F0053008F04DC011
:101A00008C2F8F710E94F61148C0063008F045C037
:101A1000F7CF112339F08C2F8F710E94B0113DC088
:101A20001123C9F38C2F8F710E94D11136C011235D
:101A300029F08C2F8F710E949B112FC00E9496114C
:101A40002CC0112349F0CF718C2F0E94B01163E09C
:101A50008C2F0E949E1321C081E00E94B31302309C
:101A6000E0F082E00E94B31318C0112331F000238C
:101A700091F28D2F0E94D20A10C0002399F2D9331F
:101A800049F41FEF2DEE32E0115020403040E1F7D5
:101A900000C000008D2F0E94200B88EF8C0D843039
:101AA00020F40E94A3090E943704DD20C9F00E949F
:101AB0001D1380FD15C0F70112820E9417130E94AA
:101AC000B011C7010E94910D0E941713DF91CF91B1
:101AD0001F910F91FF90EF90DF90CF900C94D11158
:101AE000DF91CF911F910F91FF90EF90DF90CF90FA
:101AF00008950F931F93CF93DF93EC016881798151
:101B00008A810E94F4128C010E944D120E943E11A3
:101B1000B801CE010E946D0BDF91CF911F910F9103
:101B20000895CF93DF93EC01988189812B813C81CB
:101B3000232B31F08F3F31F481E09F3F19F403C034
:101B400081E001C080E080FD19C0CE010E945004F8
:101B500081110CC00E942113882381F08A8188237F
:101B600069F082E0DF91CF910C94B313CE010E9413
:101B7000790DCE01DF91CF910C945D03DF91CF9170
:101B800008950E9448130E944B130E94691380E03D
:101B900090E00E94BA0980E090E00C94D009809116
:101BA0006000909161000E94B9140C94C10D0E94D4
:101BB00038130C94CF0DE92FE295EF704E2F50E0C3
:101BC000FA013297EE30F105B0F4EA5CFF4F0C9465
:101BD0002D18803F91F018F4883E68F40EC0843FC1
:101BE00051F40BC0883E48F0813F29F406C093FBB6
:101BF000882780F9089580E0089581E008950E9483
:101C0000E9120E94DB0D0895CF93DF9300D000D03E
:101C10001F92CDB7DEB70F900F900F900F900F90DF
:101C2000DF91CF910895CF93DF9300D000D000D003
:101C3000CDB7DEB726960FB6F894DEBF0FBECDBF88
:101C4000DF91CF9108951F93CF93DF93C091ED0063
:101C500016E08091EE00C81799F0D0E01C9FF001CB
:101C60001D9FF00D1124E151FF4F40815181628190
:101C70007381848195810E94130E2196C770E9CFEC
:101C8000DF91CF911F91089540911F015091200144
:101C90006091210170912201809123019091240192
:101CA0000C94130E0F931F93CF93DF938091240115
:101CB00082958F7009F05DC080912101882309F41D
:101CC00058C08091ED001091EE0060911F0170915D
:101CD0002001C0912201D091230191E06F3F09F0D2
:101CE00090E0292F06E0811709F443C0209721F0E6
:101CF0007F3F21F030E003C031E001C0322F90E09F
:101D000030FD34C0089FF001099FF00D1124DF0160
:101D1000A151BF4F11963C911197371327C03C91A9
:101D2000361324C012963C91129731111FC013969E
:101D30004D915C9114974C1B5D0B483C5105B0F4E0
:101D4000809124018F70806180932401EC50FF4FBB
:101D500080818F70806180838FE191E00E94910D7E
:101D6000DF91CF911F910F910C94230E01968770F4
:101D7000BACFDF91CF911F910F9108959F92AF92AB
:101D8000BF92CF92DF92EF92FF920F931F93CF9368
:101D9000DF93CDB7DEB761970FB6F894DEBF0FBE05
:101DA000CDBF8C0185E0F801DE011D9601900D92FA
:101DB0008A95E1F7F80140815181E28090911F01FD
:101DC00060912001209122013091230121153105DC
:101DD00031F06F3F31F481E09F3F19F403C081E09F
:101DE00001C080E0F82FF1709F2E80FD46C1F80100
:101DF000A380B4808FE1C82E81E0D82EF09021011D
:101E0000F501E21BF30BFF2009F4DFC080912401F0
:101E1000E83CF10508F09BC0282F207F09F052C054
:101E2000561313C0491311C0FE2CE1100EC08F7061
:101E30008061809324010E94440EC6010E94910D8E
:101E400080912401F801858358C1AB2831F05F3FB0
:101E500031F481E04F3F19F403C081E001C080E01C
:101E600080FD03C081E08E2502C080E090E0F82F65
:101E7000F170FF2E80FF1CC08091ED002091EE00DC
:101E800036E0821709F417C190E0389FF001399FBE
:101E9000F00D1124E151FF4F6181561306C060819E
:101EA000461303C06281E61203C001968770E9CF32
:101EB000FE2CEE2009F421C18091240181608093E1
:101EC00024015AC0561306C0491304C0E11002C0D1
:101ED000F8019FC04D875E878D859E850E94FF0D0E
:101EE000882379F1EE2069F120912401822F8295D7
:101EF0008F7090E0029774F080911F019091200103
:101F000098878F831986BB86AA862C87CE01079671
:101F10000E94910D86E0F801AFE1B1E001900D92D1
:101F20008A95E1F70E94520E0E94440E0DC056178A
:101F300029F14D875E878D859E850E94FF0D811159
:101F40002CC0C8010E94910DFF24F394D6C0282F05
:101F5000207F69F77A2DB98AA88A6E2D89890E9417
:101F6000040E8FE191E00E94910D86E0F60111923E
:101F70008A95E9F70E94440EF12CBFC04913D9CFCE
:101F8000E110D7CFF8018583C8010E94910D86E04A
:101F9000F60111928A95E9F7B0C0EE2091F22091F6
:101FA0002401822F82958F7090E002970CF4B2CFBB
:101FB00080911F01909120019A8389831B82BD82A9
:101FC000AC822E83CE010196A3CFE83CF10508F048
:101FD00047C0FE2CEE2009F4B4CF561330C049138D
:101FE0002EC02091240120FD21C0822F82958F7068
:101FF000482F50E041155105C9F0F80125834F30B5
:10200000510541F08F5F982F9295907F822F8F70AE
:10201000892B8583C8010E94910D86E0F801AFE10C
:10202000B1E001900D928A95E1F742C086E0F80197
:10203000AFE1B1E001900D928A95E1F75EC04D8766
:102040005E878D859E850E94FF0D811163CF8091F3
:102050002401816080932401C8010E94910D4DC02C
:102060007A2DB98AA88A6E2D89890E94040E86E08D
:10207000F60111928A95E9F71BC0EE2009F461CFB1
:102080004D875E878D859E850E94FF0DF82E8823E3
:1020900009F457CF86E0F801AFE1B1E001900D926D
:1020A0008A95E1F78FE191E00E94CC0A0E94520EDE
:1020B0000E94440E22C04D875E878D859E850E94BA
:1020C000E912292F22952F70223028F49F7039F0C1
:1020D000811105C00BC0243028F49F7049F4805E44
:1020E000883020F0C8010E94910D9F2CF92C05C06A
:1020F000F8019581907F99F7F9CF8F2D61960FB6F2
:10210000F894DEBF0FBECDBFDF91CF911F910F912D
:10211000FF90EF90DF90CF90BF90AF909F90089589
:102120001F93CF93DF93CDB7DEB72C970FB6F894FC
:10213000DEBF0FBECDBF4F83588769877A878B87F5
:102140009C87CE0107960E94BE0E8823D1F09F8106
:1021500088852A853B85232B31F08F3F31F481E040
:102160009F3F19F403C081E001C080E080FD47C0BB
:102170004F81588569857A858B859C850E94130ED1
:102180003EC086E0FE013796DE01119601900D9269
:102190008A95E1F7FF81E8856A857B856115710580
:1021A00031F0EF3F31F481E0FF3F19F403C081E0EB
:1021B00001C080E080FD23C02091EE0030E0C90125
:1021C0000196877099274091ED0050E0841795079C
:1021D000F1F1F983EA837D836C8396E0929FD001CD
:1021E000939FB00D1124A151BF4FFE013196019074
:1021F0000D929A95E1F78093EE000E94230E16E06F
:102200008091ED009091EE00891771F1189FC00147
:10221000112481519F4F0E94BE0E882329F1E09125
:10222000ED001E9FF0011124E151FF4F40815181CB
:1022300062817381848195810E94130E8091ED00EB
:1022400090E00196877099278093ED00D9CF0E9486
:10225000D70D1092EE001092ED00EFE1F1E086E074
:10226000DF011D928A95E9F72C960FB6F894DEBF30
:102270000FBECDBFDF91CF911F91089508950895AE
:102280000C943F110C9440110E944211609338014C
:102290007093390180933A0190933B010C94C10DE6
:1022A0000C9444110F931F93009138011091390140
:1022B00020913A0130913B01602B712B822B932BA3
:1022C0001F910F910C9444110F931F9300913801AB
:1022D0001091390120913A0130913B016023712323
:1022E000822393231F910F910C9444110F931F93FA
:1022F000009138011091390120913A0130913B0150
:1023000060277127822793271F910F910C94441106
:102310000C943F110E948811609334017093350131
:1023200080933601909337010C94C10D60E070E00A
:10233000CB010C948A110F931F9341E050E060E0B1
:1023400070E08A019B0104C0000F111F221F331F80
:102350008A95D2F7C901B8011F910F910C948A1187
:102360000F931F9341E050E060E070E004C0440F21
:10237000551F661F771F8A95D2F78091340190917F
:102380003501A0913601B09137018A019B01082BDC
:10239000192B2A2B3B2BC901B8011F910F910C94CB
:1023A0008A110F931F9341E050E060E070E004C099
:1023B000440F551F661F771F8A95D2F74095509599
:1023C000609570958091340190913501A09136010E
:1023D000B09137018A019B01082319232A233B234B
:1023E000C901B8011F910F910C948A110F931F938B
:1023F00041E050E060E070E004C0440F551F661FEC
:10240000771F8A95D2F78091340190913501A09180
:102410003601B09137018A019B01082719272A2725
:102420003B27C901B8011F910F910C948A110F939A
:102430001F930091340110913501209136013091A4
:102440003701602B712B822B932B1F910F910C94D2
:102450008A110F931F93009134011091350120913F
:1024600036013091370160237123822393231F911A
:102470000F910C948A110F931F93009134011091C6
:10248000350120913601309137016027712782276D
:1024900093271F910F910C948A110895292F220FD1
:1024A000920F990F890FE82FE695E695E6958770CC
:1024B00051E001C0550F8A95EAF785E0E89FF001E9
:1024C0001124EB5DFE4F20E030E070E04081CB0155
:1024D000022E02C0969587950A94E2F78170819545
:1024E00084278523842781932F5F3F4F2530310533
:1024F00069F70895292F220F920F990F890F682FDE
:10250000669566956695982F977085E0689FB001EF
:10251000112440E050E080E0FB01E40FF51FEB5D8B
:10252000FE4F208130E0092E02C0369527950A948F
:10253000E2F721703327042E01C0220F0A94EAF734
:10254000822B4F5F5F4F4530510531F70895BF92A1
:10255000CF92DF92EF92FF920F931F93CF93DF936F
:102560008C01C0903401D0903501E0903601F0909C
:1025700037018091380190913901A0913A01B091D1
:102580003B01C82AD92AEA2AFB2ACFE1D0E0D701A9
:10259000C6010C2E04C0B695A795979587950A9409
:1025A000D2F780FD04C0219790F7B12C07C0BC2E54
:1025B000B8018C2F0E94A0040197A9F38B2DDF9105
:1025C000CF911F910F91FF90EF90DF90CF90BF9030
:1025D0000895CF93DF93EC010E94A712BE010E94E1
:1025E000A004DF91CF9108951F93CF93DF93EB0168
:1025F0009091EC00992321F0CB010E94E91213C0C5
:10260000882349F0CB010E94A712182F682FCE0112
:102610000E944E1204C0CB010E947A12182FBE01F4
:10262000812F0E94A004DF91CF911F910895809186
:102630003C01859585958595089580913C0187702D
:10264000089590913C01977081E009F480E008952D
:1026500080914801089590914801892B8093480109
:1026600008958095909148018923809348010895A9
:1026700010924801089590914701892B809347015A
:10268000089580959091470189238093470108958B
:1026900010924701089510924601089580913D01DE
:1026A000089508950C9451130C94521390913D0188
:1026B000981721F080933D010C9454130895809154
:1026C0003D01882329F010923D0180E00C945413C1
:1026D0000895E0916000F09161008091480180834D
:1026E000E0916000F0916100908180914701892B19
:1026F0008083E0916000F0916100908180914601BB
:10270000892B808380913D01882381F0E0916000D6
:10271000F09161009081892B80838091600090917D
:1027200061000E94731481110E945F138091600008
:10273000909161000C94AF090C94511398E0899F1B
:1027400090011124262B20933C010E94B01180910E
:102750003C018595859585950C949C1310923C01C0
:1027600080E00C949C1320913C01809582238093FF
:102770003C01982F977079F430E0482F082E000C18
:10278000550B2417350739F08595859585950E9459
:10279000D1110C94AE13089580E090E00E943B1894
:1027A00021E08C3E9E4F09F020E0822F089582E0C8
:1027B00090E00C94331883E090E00C943318CF939E
:1027C00084E090E00E943318C82F81E290E00E94DC
:1027D00033182C2F30E0A901582BCA01CF9108954E
:1027E000CF93C92F682F84E090E00E9441186C2F8E
:1027F00081E290E0CF910C944118AB01BC018FE0D5
:1028000090E00C945218AB01BC0183E190E00C9471
:10281000521860E070E0CB010C94031460E070E0AB
:10282000CB010E94FD130C9409146CEE7EEF80E046
:1028300090E00E945E1860E082E090E00E94411803
:1028400060E083E090E00E944118109238011092FD
:10285000390110923A0110923B0160E084E090E06F
:102860000E94411860E081E290E00E94411860E01F
:1028700085E090E00E94411860E086E090E00E94D0
:1028800041186FEF87E090E00E94411840E050E06F
:10289000BA0188E090E00E94521860E08DE090E07C
:1028A0000E94411840E050E0BA0188E190E00E94A7
:1028B000521860E087E190E00E94411840E050E04B
:1028C000BA018CE190E00E94521860E080E290E052
:1028D0000E9441180C940E140C941514682F8EE06D
:1028E00090E00C944118FC01329697E080E0915002
:1028F00029F021912223D9F38F5FF9CF0895662320
:1029000049F0FC01329608962191621729F0E817E8
:10291000F907D1F780E0089581E008959C01FC015A
:1029200032969FEF80E04191461789F09F3F19F45E
:10293000411101C0982F8F5F8630A9F79F3F39F072
:10294000F901E90FF11D97FDFA9562830895089545
:102950009C012A5F3F4FFC014281461301C0128255
:10296000019682179307B9F708950C948E140C946E
:10297000A814029626E0FC0111922A95E9F7089521
:1029800008950C94C0140C94C014CF930E94C314E7
:102990000E94D0060E94C114C0E08C2F0E946806DD
:1029A000811104C0CF5FC430C1F701C081E0CF9175
:1029B00008958BE083BF8BEB8CBF82E089BF0895C5
:1029C0002FB7F8948091E4019091E501A091E60180
:1029D000B091E7012FBF08959C014FB7F894809103
:1029E000E4019091E501A091E601B091E7014FBFAC
:1029F000821B930B089578941F920F920FB60F923B
:102A000011248F939F93AF93BF938091E401909192
:102A1000E501A091E601B091E7010196A11DB11D6C
:102A20008093E4019093E501A093E601B093E70160
:102A3000BF91AF919F918F910F900FBE0F901F90FC
:102A4000189560E081E090E00E94641887E090EBC8
:102A5000DC0180932E0290932F02A0933002B0935A
:102A600031029CE088E10FB6F894A89581BD0FBEB5
:102A700091BDFFCF0E94CC13811102C00E946C1443
:102A80000E94D713809349010E94DF139093E901BC
:102A90008093E8010E94DB13682F70E080E090E0F3
:102AA0000C9450110F931F93CF93DF930E94E01467
:102AB0008C010E94F6090E943C160E949E090E9409
:102AC0001A188B9A80E0815041F0A895E7EBFBE063
:102AD0003197F1F700C00000F6CF8B987894FFEBA8
:102AE00024ED31E0F15020403040E1F700C000001B
:102AF0000E94000AC0E0DCE080910502882331F0EA
:102B0000109205020E94E0148C0107C0C8010E94C7
:102B1000EC14069788F4C1110FC00E94251780910C
:102B20000B02882329F08091F50184FD0E94080A98
:102B30000E94F015C0E0E0CF0E94C514811102C0D0
:102B4000C1E0DACFF89491B3939A892F8C6081BB5E
:102B500082B38D2782BB8FE5EAEEF0E08150E04042
:102B6000F040E1F700C0000082B38D2782BB91BB2B
:102B700093987894E5CF8091DB0108950895CF93E1
:102B8000DF9300D01F92CDB7DEB790914C01981320
:102B900007C020914A0130914B012617370791F069
:102BA00080934C0170934B0160934A0189837B832E
:102BB0006A838091220284FF05C063E0CE01019602
:102BC0000E9421170F900F900F90DF91CF910895E1
:102BD000BC0184E00C94BF15BC0183E00C94BF15CC
:102BE000CF93DF93CAE0D0E08091F50184FF18C055
:102BF00080915801909159019817E1F028E0829F47
:102C0000C001112468E0865A9E4F0E941D178091D2
:102C1000580190E001968F709927809358010AC05F
:102C20000E94251787EB9BE00197F1F700C0000099
:102C30002197D1F6DF91CF910895FC01A091590120
:102C4000B0E09D012F5F3F4F2F70332780915801D7
:102C5000821771F083E0AA0FBB1F8A95E1F7A65A8D
:102C6000BE4F98E001900D929A95E1F7209359019B
:102C70000E9425170C94F01582E690E00895FC015F
:102C800080818076803281F58181813041F480E5D8
:102C900091E0909307028093060288E008958230C5
:102CA00041F48AED91E0909307028093060281E05F
:102CB00008958A3021F483818093DA0115C0893028
:102CC00099F4828193818115924081F48481958168
:102CD000892B61F481E080934F01868197819093E5
:102CE0004E0180934D0102C080E008958FEF08955A
:102CF00020914D0130914E01232B71F020914F0115
:102D0000213051F4FC0180818093DB0110924E014F
:102D100010924D0181E008958FEF08950895FC0110
:102D200093819330D9F068F4913081F0923009F0BA
:102D300060C085EB91E090930702809306028BE3DD
:102D40000895913281F19232F1F153C080EF91E018
:102D5000909307028093060282E108958281813078
:102D600061F040F0823089F0833009F042C082E0A7
:102D700092E013C084E392E010C084E292E090936A
:102D80000702809306028EE0089588E092E0909317
:102D90000702809306028AE10895909307028093C8
:102DA000060284E008958281882329F0813009F5A4
:102DB00080EE91E002C087EC91E09093070280934F
:102DC000060289E0089584819581009751F001976A
:102DD00081F488E392E0909307028093060282E3F5
:102DE00008958AE692E0909307028093060280E4B9
:102DF000089580E008951F93CF93DF93162FEA0183
:102E0000288124FF05C0398128E82327298302C0AF
:102E10002AE52883212FFC01CE010296DC013191A5
:102E20003D9321501216DCF3612F0E94B0011C5F0C
:102E30001883DF91CF911F91089545EF51E00C94D5
:102E4000FB1642E252E00C94FB16CF93DF936091A5
:102E50000802635067FD91C080910402CCE0D0E08D
:102E6000C81BD109C45FDD4F80910302803120F47B
:102E7000CE010E948E167FC08D3209F06CC0683082
:102E800009F079C083EC8093EA018AE580936D00B4
:102E9000109202028881807621F0CE010E943F16B6
:102EA00047C09A811092F3018981811106C0109266
:102EB000F40123EF31E082E036C0853019F49093BD
:102EC00009022EC08630A1F48B81813041F082301E
:102ED00031F0833021F0813211F0823221F4CE01C1
:102EE0000E948F1601C080E090E49093020220C0FF
:102EF000883079F0893019F490930B0211C08A3030
:102F000059F08B3069F48BE48093F60180932302AF
:102F100007C02BE032E002C023EF31E081E003C0C4
:102F200023EF31E080E0309307022093060209C0CE
:102F30008F3F39F4988197FD8E8190E8909302023B
:102F400007C09F81911104C09E81981708F4892FB2
:102F500080936C0010C08091020287FF0CC0CE01EC
:102F60000E9478168F3F21F48EE180936D0003C09C
:102F7000811110926C001092080280916D0084FF04
:102F80004CC080916C008F3F09F447C0C82F893036
:102F900008F0C8E08C1B80936C009091EA0188E8EF
:102FA00089278093EA01CC2359F180910602909100
:102FB00007022091020226FF12C0AAEEB1E02C2FD8
:102FC000AC014A5E5140FA01EA0FFB1FE4911196F1
:102FD000EC931197215011962111F5CF08C0EBEE1B
:102FE000F1E0DC012C2F3D9131932150E1F7019666
:102FF0002FEF2C0F820F911D9093070280930602F2
:103000006C2F8BEE91E00E94B001CC5FCC3019F0B8
:103010008FEF80936C00C0936D0084E190B39C703F
:1030200031F48150D9F71092090210920102DF9118
:10303000CF91089585B7886085BF8BB780688BBFB7
:10304000A5EFB1E08BE411968C931197E2E2F2E0E8
:1030500081838AE58C9380830895EE0FFF1F05908E
:10306000F491E02D0994E199FECF9FBB8EBBE09ACD
:1030700099278DB30895A8E1B0E042E050E00C94A8
:103080007318262FE199FECF9FBB8EBBE09A019764
:103090000DB2021631F02DBB0FB6F894E29AE19A08
:1030A0000FBE08950396272F0E9442180E944118D0
:1030B000252F0E944218242F0C9442180196272F86
:1030C0000E9442180C944118262FE199FECF9FBB15
:1030D0008EBB2DBB0FB6F894E29AE19A0FBE019613
:1030E0000895DC01CB01FC01E199FECF06C0FFBBD6
:1030F000EEBBE09A31960DB20D9241505040B8F7B8
:063100000895F894FFCFD2
:103106003E01BB151D16BE15EC15E815FF5AE2006B
:10311600E900EA00B500B600B700CD008301CC0097
:103126008A01920194012102230224022502260229
:1031360027022A02B300B4006F0070008182836503
:10314600646362616090919293E200E900EA00B5DF
:1031560000B600B700CD008301CC008A019201942D
:10316600012102230224022502260227022A02B393
:0A31760000B4006F00700081828336
:00000001FF
